:100000000200FB057D323132333435857E8C857FAD
:100010008A057D32313233343536370276B23132A9
:10002000333435C0D0C0E0D2D410980B10991F855E
:100030005CA0D0E0D0D032D2D375A001E599F3090D
:10004000E8B519E8C2AC855CA0D0E0D0D03275A08C
:1000500000C2D3E8B5110AC264855CA0D0E0D0D05C
:1000600032E2F59908855CA0D0E0D0D03275A004CA
:1000700078007406F2087400F208E4F208B8CAFBCB
:1000800078CAF278CBF278E4F278CC7401F278CDC9
:10009000F278CF7462F278D07406F278D174FFF2FD
:1000A00078D274FEF278D3749EF278D474F8F29019
:1000B0000600121E0875A0057800E4F208B8CAFB15
:1000C00078CAF278CBF278CCF278D7F278D8F20806
:1000D000B8E8FB9004D57401F09004D6F09004D7F2
:1000E000E4F09004D97404F09004E37405F09004F3
:1000F000D87460F09004DA7478F02275D0007581BD
:100100002F75892175885175B801759870758DFFA7
:10011000758BFF7802E4F608D9FEB880F990FF00ED
:100120007401F0743890FF08F01206611206611233
:1001300006617438F012065A7406F012065A740EEC
:10014000F012065A7401F012066190FF0674FEF078
:1001500012065AE590B4FB3A74FDF012065AE59087
:10016000B4FF2F74FBF012065AE590B43F2474F7E5
:10017000F012065AE590B4FF1974EFF012065AE532
:1001800090B4FF0E74DFF012065AE590B4FF03023C
:1001900001B174DFF012065AE590B4F303027B1349
:1001A00075A00278FEE208B42707E2B4B5030201A5
:1001B000BE74B5F2187427F212006D121ECD75A030
:1001C0000478E57480F20874DFF20874FFF208E442
:1001D000F2087480F208E4F208F208D2D4780079C8
:1001E00000D2D378007900C2D3C2D475A002E478DB
:1001F00000F2781FF27834F2786BF278A2F2757B15
:100200000B757C26757D00C264C265C2669004CE03
:1002100074FFF0D275D2787548FF9004CAE0B464D8
:100220000ED27A1247A190FF0474EFF00202381246
:100230002E9E90FF0474FBF090FF0EE4F090FF0FF1
:1002400004F090FF1AF0D27990228912315EC260D8
:1002500012055EA244926075A892C289121C0D30EC
:100260007A091221939004B702027112214390037C
:10027000C885824E85834D90FF04E04489F0C269B1
:1002800012055E12066112066112066190FF0EE011
:100290007003757D00D2D4D2D3120B26C2D3C2D440
:1002A0001247E1307B28C269C27D207A0E90FF049C
:1002B000E054087006125CAF020F4090163B858236
:1002C0004E85834D90FF04E04408F0020F40120871
:1002D0000820440330043B90FF0EE0147003757D4A
:1002E00000C269C27D207A1730370612324C0202F2
:1002F000FF90FF04E054087006125CAF020F5190AB
:10030000163B85824E85834D90FF04E04408F00241
:100310000F51300548203045203142106338C26902
:10032000C27D90FF0EE0147003757D00207A11905D
:10033000FF04E054087009125CAF126D90020F7355
:1003400090163B85824E85834D1217CA90FF04E0BC
:100350004408F0020F7390FF04E04402F0E57D6072
:100360001090FF0EE0B4020990FF1AE06003020251
:10037000E1123272301805C26912327A301005C2A9
:100380006912347B302805C26912357A302F05C2D4
:1003900069123F94302005C26912407D301F05C2AA
:1003A00069127340300605C269125053300105C20C
:1003B0006912599A300005C26912599A121ECD125B
:1003C0002E2D1206340202803026030242FC122E29
:1003D00020301E05C2690236D0302B05C2690238B2
:1003E0001B300205C269023CF2302C05C269023D95
:1003F000AE300305C269024F01302705C2690256BB
:100400007C302E179004EFE07011C269754C00C269
:100410006390FF04E04402F002623D300705C269C8
:10042000023170122DFB403C30690D9004EEE01457
:10043000F07005C269122143301213755C0475A077
:100440000478CAE204B464004043E402048D30112D
:1004500012755C0475A00478CAE214B4FF2F7463AB
:1004600002048D22106918D269F5731221CF74F03D
:100470001221CF748E1221149004EE7400F022F831
:10048000E57375F00AA428755C0475A004F5F0788E
:10049000CAE2C0E0E5F0F278CBF21221439004CA40
:1004A000D0E0F01218A1C26C122E9EC263C26990F5
:1004B000FF04E04402F022302D03024372302E0587
:1004C000C26902442D300205C2690241B3302B05D6
:1004D000C2690271F3122E20122DFB403C30690DCF
:1004E0009004EEE014F07005C269122193301213EB
:1004F000755C0575A00578CAE204B464004043E465
:10050000020542301112755C0575A00578CAE21427
:10051000B4FF2F746302054222106918D269F57383
:100520001221CF74F01221CF748E1221149004EE98
:100530007400F022F8E57375F00AA428755C05755F
:10054000A005F5F078CAE2C0E0E5F0F278CBF2124F
:1005500021939005CAD0E0F0124226C26922C02839
:1005600090FF067480F0120653E590B4FF46C26A0D
:10057000E4F555F556F557F558F559F55AF526F5BC
:1005800027F528F529F52AF52B754B80F520F5215F
:10059000F522F523F524F525E5B0206001F4540893
:1005A000F8E52854F748F528D0E068587003C244AD
:1005B00022D2442274FFF07AFE7B0678007926EA84
:1005C000000000000090FF06F0120653E590F4F7DB
:1005D00074FFF090066BE7099328F8EA23FAB80352
:1005E000004005D26AE480A4DBDBC26A785579203A
:1005F0007508267B06D2D3E608C2D3F5F066A6F0CE
:1006000055F0F70809DBEE20420E20411920310693
:10061000203003754B808080154BE54B70F8754B8F
:1006200014D212020598154BE54B7005754B14D288
:1006300011020598305F1B3010069024DF02064F30
:1006400030180690230902064F3020069025AB1281
:10065000315E2200000000000022741BD5E0FD0086
:100660002275F02712065AD5F0FA22000101020184
:10067000020202010202020202020201020202025C
:10068000020202020202020202020201020202024B
:10069000020202020202020202020202020202023A
:1006A000020202020202020202020201020202022B
:1006B000020202020202020202020202020202021A
:1006C000020202020202020202020202020202020A
:1006D00002020202020202020202020202020202FA
:1006E00002020202020202020202020102020202EB
:1006F00002020202020202020202020202020202DA
:1007000002020202020202020202020202020202C9
:1007100002020202020202020202020202020202B9
:1007200002020202020202020202020202020202A9
:100730000202020202020202020202020202020299
:100740000202020202020202020202020202020289
:100750000202020202020202020202020202020279
:10076000020202020202020202020220633E306B17
:1007700001229004D4E07001229004CCE0700122A8
:1007800090091014F893F570D26BE825E0245DF819
:10079000867108867290FF04E054FDF0D26312085F
:1007A0000879BE7C20E4F30909DCFB22306E3DE5CC
:1007B00012B4FF030207EC79BEAF79751A40755C7D
:1007C0000275A002E309700909B9FEF88F790207E2
:1007D000ECF583E309F582E0C2E7F5797480D2D4C1
:1007E000120CFDC2D3C2D4B9FED48F79C263900477
:1007F000CCE01425E0245DF88673088674757000DB
:1008000090FF04E04402F022755C0275A002E478D7
:1008100000F2781FF27834F2786BF278A2F278BBAB
:10082000F2C27B22755C0475A00485736D85746EBD
:1008300078CFE2C3956DFE08E2956EFF85766F85F1
:100840007570121E76AA73AB74AC71AD72E576C387
:100850009AFEE5759BFF121A3B78CFE2F908E2FA9F
:10086000E576C399F9E5759AFAE573C39571FEE5E6
:10087000749572FFE9C39EF9EA9FFA78D3E2C399AF
:10088000F208E29AF278CCE214701478CAE225E019
:10089000F8E2F58308E2F582E029F0A3E03AF07887
:1008A000CFE576C39EF208E5759FF2C26B78CAE287
:1008B00025E0F8E2F58308E22412F582E43583F5B9
:1008C00083E07045A3E07041A952E550B430005078
:1008D0000D74012552D4F552E43551D4F551E5514A
:1008E000700CE5526003B40103755202E551B40681
:1008F00007A852B884021552F0E582C39401F5822C
:10090000E5839400F583E552F0124C77122E9E2277
:100910000102040810204080D262206607C26102F2
:100920000924C2629004D1E0F56DA3E014F56E7560
:100930005C0275A00230661678A2E27003020AD348
:1009400024A2FBE4F2857583857682020AB37800DF
:10095000E2604C2400FBE4F2120AF508E220610296
:10096000D2E7F079BE7C20E360080909DCF9E802EF
:100970000996E583F309E582F3A320610AD261E5D4
:1009800078F0A3E577F0A308E2F0A308E2F0A3E48F
:10099000F0A304F0A3EB858375858276B500B97862
:1009A0001FE2241FFB79BEE309700709B9FEF802B4
:1009B0000A02F583E309F582E0F5F030F704C2F7A7
:1009C000A3A3A3A3E0FA781FEBB500030209E8088C
:1009D000E208B5F0F3E2B502EF7411F21919E4F38D
:1009E0000909B9FEC2020A02306214A3C083A3E05F
:1009F00004F0D0831582B40106E00420E701F0B9C9
:100A0000FEA5781FE4F27834E260362434FBE4F289
:100A1000120AF508E2206102D2E7F0A320610AD2AF
:100A200061E578F0A3E577F0A308E2D2E7F0A30848
:100A3000E2F0A3E4F0A3A3EB858375858276B5008D
:100A4000CF786BE2603C246BFBE4F2120AF5747C15
:100A5000206102D2E7F0A320610AD261E578F0A319
:100A6000E577F0A37480F0A308E2FC08E2FD08E259
:100A7000F0A3ECF0A3EDF0A3858375858276EBB54A
:100A800000C978A2E2606DD26624A2FBE4F2120AE9
:100A9000F5747D206102D2E7F0A320610AD261E5FE
:100AA00078F0A3E577F0A3755B0108E2D2E7F0A345
:100AB000020AC9E55B60D708E2F0A3E55B04B40273
:100AC00002F0A3B40301E4F55B858375858276EBC0
:100AD000B500E020651EC266E55B601885758385FC
:100AE00076827480F0E55BB40103A3F0A3A3858351
:100AF0007585827622857583857682C3E56D9582BC
:100B0000E56E9583400122158115811581158112AD
:100B100010E8C26FD2A975F0FC122FB212315B023D
:100B2000025FD07BD07C755C0175A001E8B519012E
:100B300022E208FA20E708857B83857C82E47354EF
:100B400070C423900B477361576195E13561F08163
:100B50003E817C81BAA1B3C265531A0F8A7A120B07
:100B6000228A79120B222073F5E54820E703B57A33
:100B7000ED306E057480120CFD755C0275A002C22A
:100B8000D4781FE22402F21828F8E579F208E57A11
:100B9000F2D2D480C9C265531A0F8A7A120B228A04
:100BA00079120B222073F5E54820E703B57AED3082
:100BB0006E057490120CFD755C0275A002C2D4E53E
:100BC0001A60197800E22403F2181828F8E579F27F
:100BD00008E51AF208E57AF2D2D480C0781FE22440
:100BE00002F21828F8E579F208E57AF2D2D480AC5E
:100BF000C265531A0F8A7A120B228A79120B2220AD
:100C000076F5E54820E703B57AED306E0574B0124D
:100C10000CFDE579B47A0280DE400280DA755C0270
:100C200075A002C2D47834E22403F2181828F8E53B
:100C300079F208E51AF208E57AF2D2D480B9C265F1
:100C4000531A0F8A7A120B222077FAE54820E7031D
:100C5000B57AF2306E0574C0120D42755C0275A053
:100C600002C2D47834E22403F2181828F8747AF215
:100C700008E51AF208E57AF2D2D480C9C265531A9F
:100C80000F8A7A120B222075FAE54820E703B57A1D
:100C9000F2306E0574D0120D42755C0275A002C26E
:100CA000D47834E22403F2181828F8747BF208E5AB
:100CB0001AF208E57AF2D2D480C9C265531A0F8AB3
:100CC0007A120B222074FA8A79120B22E54820E767
:100CD00003B57AED306E0574E0120CFD755C02759B
:100CE000A002C2D4786BE22403F2181828F8E57940
:100CF000F208E51AF208E57AF2D2D480C4C2D375BC
:100D00005C0075A000C2AC206404D299D264306348
:100D100008BAFF0280034A8002457AF309E904B564
:100D200010031214F0E579F309E904B51003121465
:100D3000F0E51AF309E904B510031214F0D2ACD2AD
:100D4000D322C2D3755C0075A000C2AC206404D26B
:100D500099D264306308BAFF0280034A8002457A60
:100D6000F309E904B510031214F0E51AF309E904D4
:100D7000B510031214F0D2ACD2D322C2D3755C00EA
:100D800075A000C2AC206404D299D264F309E904CE
:100D9000B510031214F0E579F309E904B510031254
:100DA00014F0E51AF309E904B510031214F0D2ACFB
:100DB000D2D322EA540F23900DBB73A1E6E135C1D3
:100DC0008FC1BAE135E135E135C1BFC1C46126C18A
:100DD000D0C1F6E11C612661266126120B22207823
:100DE000FA120E7980F5D265120B22207803120ECA
:100DF00079EAB400E6120B22207803120E79EAB4E5
:100E000000D9120B22207803120E79EAB40ECC120C
:100E10000B22207803120E79EAB400BF902CCBC2CB
:100E2000D3C2D412212BD2D3D2D4900400755C014A
:100E300075A001E8B5190280FAE20820E738F5F05C
:100E40007C07E8B5190280FAE20820E72923FA7442
:100E500008C39CFDEAC333C5F033C5F0DDF7C5F028
:100E6000F0A3DC0280CDAD1CE4C5F0C333C5F03384
:100E7000C5F0DDF780CC0200FB755C0275A002C2F4
:100E8000D478A2E22401F228F8E51AF2D2D422C2E0
:100E900065120B228A79120B22306E0574F2120D44
:100EA0007B755C0275A002C2D478BB7401F208E5C0
:100EB00079F208E51AF2D2D480D7C265020F35C2A2
:100EC00065020F3530796BE57D2404F57D020B2634
:100ED000206F5F20791690FF0EE0B4015590FF1A45
:100EE000E0B4014E757D00D204020B26757D00D260
:100EF00004C2A9020B26206F3920791690FF0EE05C
:100F0000B4012F90FF1AE0B40128757D00D27B0256
:100F10000B26757D00D27BC2A9020B26306F1320F1
:100F2000790E90FF0EE0B4010990FF1AE0B40102BF
:100F3000D205020B26C265757B0B757C26020B263B
:100F4000122FD3C27E757000306355120772020FE4
:100F5000A0C27C75F0FA122FB2306306120772023B
:100F60000F79307A089005CDE4F01247A1121C0DDC
:100F7000020F76122FD3757000D28DC27E3063209F
:100F8000122EC830040875F0FC122FB280C3300551
:100F90000AC26F120FB4C27102025F306102D27EC8
:100FA000307A2C9005CEE0B4FF25C26F120FB4C288
:100FB0007102025F90FF0EE0B4020AC2A9D2A875C6
:100FC0007D00020FC9D2A9C2A875F0FC022FB29011
:100FD00004CAE09004EDF0C271207D03120FE2021A
:100FE000105A207A2E9004CAE0F5F09004EDE0B596
:100FF000F0093063099023A90210010217369023EB
:10100000291221309004CAE0F5F0740E1221EE127C
:101010001709229022E91221309005CDE0049005B5
:10102000ED75F064842430F0A3740AC5F084243094
:10103000F0A3E5F02430F09005CEE09005F575F0D2
:101040000A842430F0A3E5F02430F09005CAE0F5DE
:10105000F074051221EE12170922C26790FF04E016
:1010600054FEF0D26FC204C205C2449004EC743046
:10107000F090FF1CE4F09004ECE014F0701F74306A
:10108000F012055E123272122E2D3007109004CA33
:10109000E0F5F09004CBE0B5F00312076BD2D4D2A8
:1010A000D3120B26C2D3C2D430040F1210E875F04D
:1010B000FC122FB21215D7020F512044033005380D
:1010C000C26F1210E8120FB41215FFC27112185D30
:1010D000207A1290FF04E05408700AE04481F01274
:1010E000623D02028002025F121756306B093063C4
:1010F000031207AC12082422E57D702B90FF1CE040
:1011000004F07014A3E004F0B4140D75820EE0B482
:10111000020675821AE070A8206306120808021001
:1011200076120922021076157DD2B490FF1CE4F0ED
:10113000A3F0E5782401F578E43577F5771550E5E7
:101140005070067550600211DDB401FAD270E5529C
:101150002401D4F552E43551D4F551B55324E55268
:10116000B5541F307A3A9005CDE004F01247B2E052
:1011700078CEF220E70F121DB4207D03120FE20299
:10118000122B0211E79005CDE4F01247B2E078CEC1
:10119000F2207D03120FE2306D2D121DB402122BCE
:1011A000A26B92D51210E81215D7206803306D1D7E
:1011B00075700090FF04E054FEF0C267C2B430D5F1
:1011C00003120FFE021076121756121C0DC26F1278
:1011D0000FB41215FFC27112185D02025F54037042
:1011E0000675F0F8122FB2154FE54F702CE550B48C
:1011F000600B9004D8E09005D5F00212019005D55F
:10120000E0F54F2063099004D7E0700902121990AD
:1012100004D6E06004B2B5B2B530630F107E06129A
:10122000091802122E12092202122E120808756DD8
:1012300000756F01785D9004CEE0F56EE570F455B1
:101240006EF56ED268E56E556F7002C268C269E5D0
:1012500070556F6002D269758304E56D25E024F056
:10126000F582E02401F9F00582E03400FBF074DB44
:10127000256DF582E014FF8682088683E583601180
:10128000E0C2E7FAA3E0A3B50107E0B50303021249
:10129000A3021371E54CB56D02D27FE030E7030283
:1012A0001365FAA3E0F5F0A3E020F71930E7162064
:1012B00069DF7600307ADA856DF0C000121CC7D085
:1012C0000018021236BFFF04FB0212D7ACF0BCFDBF
:1012D00004FB0212D7AB07A3E0FCA3E0FDA330F7A9
:1012E00005C2F702138F3067031214C8EB30E7030F
:1012F00002137120699E755C0375A00379007E332B
:10130000E330E7090909090909DEF58087E56DC4BD
:10131000D2E74BF309E5F0F309EAF309EDF309EC41
:10132000F3206803021294D2D4755C0075A000C249
:10133000AC206404D299D26474904503F309E904A3
:10134000B510031214F0E502F309E904B510031215
:1013500014F0E5F0F309E904B510031214F0D2AC6F
:10136000C2D4021294A68318A6820830670312140E
:10137000C8056D08B86D109005D6E0600514F00240
:10138000122EC2B402154AE56F23F56F021243E52F
:1013900002B47A3E3067031214C820680302129424
:1013A000D2D4755C0075A000C2AC206404D299D27E
:1013B0006474C04503F309E904B510031214F0E5A1
:1013C000F0F309E904B510031214F0D2ACC2D40250
:1013D00012945003021500B47B3E3067031214C808
:1013E000206803021294D2D4755C0075A000C2ACD0
:1013F000206404D299D26474D04503F309E904B59A
:1014000010031214F0E5F0F309E904B51003121407
:10141000F0D2ACC2D4021294B47C4A3067031214E6
:10142000C8206803021294D2D4755C0075A000C273
:10143000AC206404D299D26474E04503F309E90452
:10144000B510031214F0E504F309E904B510031212
:1014500014F0E505F309E904B510031214F0D2AC59
:10146000C2D4021294B47D57206803021294D2D4DD
:10147000755C0075A000C2AC206404D299D26420CF
:101480006706D26774F0F309E5F0F309E904B510D3
:10149000031214F0E50320E720F309E904B5100373
:1014A0001214F0E50520E711F309E904B510031261
:1014B00014F0D2ACC2D40212941214DD0212943091
:1014C00067031214C802129420680122D2D4755CFA
:1014D0000075A000C2AC206404D299D26474F7F302
:1014E00009E904B510031214F0D2ACC2D4C26722C9
:1014F000D2AC75F0007404D5F0FDD5E0FAC2AC2290
:101500003067031214C8206803021294D2D4755CA9
:101510000075A000C2AC206404D299D26474B045B6
:1015200003F309E904B510031214F0E502F309E925
:1015300004B510031214F0E5F0F309E904B5100343
:101540001214F0D2ACC2D4021294E570426E755CF3
:101550000375A00379007C33E320E70A0909090930
:1015600009DCF5021076FB540FCB5470C4FD090959
:10157000E3FA09E314F370E709E3600814F309DC04
:10158000D702107619191919E4F30DE4D333DDFDF0
:10159000556E60C8D2D4755C0075A000C2AC2064E2
:1015A00004D299D26474804503F309E904B51003A9
:1015B0001214F0E502F309E904B510031214F074F3
:1015C00040F309E904B510031214F0D2ACC2D4758B
:1015D0005C0375A0038085C268207A1F9004EDE04B
:1015E000F5F09004CAE0B5F0030215FBD268E5F00F
:1015F000F0207D07C271120FE2D270121C0D222062
:101600007A219004CBE0F5F09004CAE0B5F0030233
:101610001623C5F0F09004CBE5F0F01218A1C26CCF
:10162000122E9E22122E20C0E05521600312175A5E
:10163000D0E0F4552160031217CE22301803023295
:101640007A30100302347B30280302357A301E06CC
:10165000207A030236D0302E0F207A0C9004EFE06F
:101660007006754C00025CAF200103300018158134
:1016700015811210E875F0FC122FB2C2711259A632
:1016800012185D020280206379207A76122DFB40C9
:101690003130710D9004EEE014F07005C271120F3C
:1016A000E230120E9004EDE004B464004041E40224
:1016B00016EF30114D9004EDE014B4FF3274630264
:1016C00016EF10711FF54A121736D271E54A122132
:1016D000CF74F01221CF748F1221149004EE740095
:1016E000F0021702F8E54A75F00AA4289004EDF01C
:1016F000F5F09004CAE0B5F006120FE202170212EC
:1017000017361216241070012274C8307A0274CD74
:10171000122114E5511221CFE552C4540F1221CFEA
:10172000E552540F1221CF207A0B748E30710104D0
:10173000122114C270229023491221309004CAE071
:10174000F5F074051221EE9004EDE0F5F0740E1240
:1017500021EE121709229004CEE0F56E755C037538
:10176000A00379007C33E320E7080909090909DCB3
:10177000F522FB540FCB5470C4FD0909E3FA90180D
:1017800055ED93556E60E5D2D4755C0075A000C22E
:10179000AC206404D299D26474804503F309E9044F
:1017A000B510031214F0E502F309E904B5100312B1
:1017B00014F07440F309E904B510031214F0D2AC2C
:1017C000C2D4755C0375A00380A29004CEE0F56ED0
:1017D000755C0375A00379007C33E320E7080909F1
:1017E000090909DCF522FB540FCB5470C4FD09E351
:1017F000F5F009E3FA901855ED93556E60E2D2D4F6
:10180000755C0075A000C2AC206404D299D26474E7
:10181000904503F309E904B510031214F0E502F34F
:1018200009E904B510031214F0E5F0F309E904B571
:1018300010031214F0D2ACC2D4755C0375A00380FF
:101840009F755C0375A00379007A33E4F3090909F5
:101850000909DAF822010204081020408075F0B06E
:10186000D2D4755C0075A000C2AC206404D299D2B9
:1018700064E5F0F309E904B510031214F07440F3C1
:1018800009E904B510031214F07400F309E904B572
:1018900010031214F005F0E5F0B4C0D5D2ACC2D4F8
:1018A00022755C0475A00478CAE2F56D25E0F8E2C3
:1018B0007005740102316EE478CDF2121C0D121A1B
:1018C00095755C0475A00478CBE2F56EB56D0122C8
:1018D000E56D25E0F8E2F58308E22412F582E435AF
:1018E00083F583E07023A3E0701F18E4F2E582C360
:1018F0009413F5F078CFF2E583940008F2F978D3E9
:10190000E22462F208E23400F2121943E56E25E0A7
:10191000F8E2702679D0E3F583F21908E3F582F254
:10192000121E0878CFE22462F208E23400F278D383
:10193000E2C39462F208E29400F278CAE56EF21211
:101940001C0D22E56EB56D00507804F5F025E0F829
:10195000E56D04C395F0F9E270070808D9F9021A99
:101960003A896F79CFE3C39401FA09E39400FBE26B
:10197000F5F008E2188870F8C3EA98F582EB95F064
:10198000F583A3AE82AF8379D1E3FC09E3FD121A9C
:101990006078CFE2C39EF208E29FF278D1E2C39E64
:1019A000F208E29FF278D3E2FE08E2FFA870A96F86
:1019B000E2600808E22EF218E23FF20808D9F102CC
:1019C0001A3AF5F025E0F8E56DC3C5F095F0F9E2B7
:1019D00070071818D9F9021A3A896F79D1E32401EE
:1019E000FA09E33400FBE2F58308E2188870F58217
:1019F000E02582F5F0A883A3E038C5F0C39AFEE5A0
:101A0000F09BFF79CFE3FC09E3FD121A3B78CFE2AC
:101A10002EF208E23FF278D1E22EF208E23FF278AD
:101A2000D3E2FE08E2FFA870A96FE2600908E2C3F2
:101A30009EF218E29FF21818D9F022C006C007EEF5
:101A400060010F8A828B83E0A3AA82AB838C828D94
:101A500083F0A3AC82AD83DEEADFE8D007D00622B4
:101A6000C006C007EE60010F8A828B83E0F5F0E5C7
:101A700082C39401FAE5839400FB8C828D83E5F0A8
:101A8000F0E582C39401FCE5839400FDDEDADFD843
:101A9000D007D00622121C0D755C0475A00478CA0C
:101AA000E2F56D78CCE2700104F57178CDE2700159
:101AB00004B57103021B3EF5725003021B68141437
:101AC00025E0245DF879CFE3FAC396FE0908E3FB2D
:101AD00096FFEAC39401FAEB9400FB78D1E2FC088C
:101AE000E2FD121A6078CFE2C39EF208E29FF2781C
:101AF000D1E2C39EF208E29FF2E56D25E0F8E2F53F
:101B00008308E2F58278D3E2FE08E2FFE571B401D2
:101B10000DE02EF0A3E03FF0A37409021B20740A2D
:101B2000C3957225E02582F582E43583F583E5725D
:101B3000C39571F9E02EF0A3E03FF0A3D9F678CD7C
:101B4000E278CCF2121C0D9004CFE0F576A3E0F51C
:101B5000759004CCE0700574FF021B6524DAF582F1
:101B6000758304E014F51222E571141425E0245D58
:101B7000F8860208860379CFE3FC09E3FDE57214D9
:101B8000600F1425E0245DF8E6C39AFE08E6021B08
:101B9000ACE56D25E0F8E2F58308E2F582E0258208
:101BA000FEA883A3E038FFEEC39AFEEF9BFF121A54
:101BB0003B78CFE22EF208E23FF278D1E22EF20833
:101BC000E23FF2E56D25E0F8E2F58308E2F5827880
:101BD000D3E2FE08E2FFE572B4010EE0C39EF0A37B
:101BE000E09FF0A37409021BEB740AC3957125E012
:101BF0002582F582E43583F583E571C39572F9E0BA
:101C0000C39EF0A3E09FF0A3D9F5021B3E755C04D0
:101C100075A00478EFE4F29005D7E09005D6307A0D
:101C20000DF09005CEE030E70A7464021C33E4F056
:101C300078CAE225E0F8E2701A740179EFF3795D71
:101C40007A0877E509770409DAF87554837553063D
:101C5000021C93F583FF08E2F582FEA3A3796B7A59
:101C600008E02EF7A309E0A33FF7191919DAF2E00B
:101C7000F554A37011E0700F740178EFF27554837E
:101C8000755306021C89E0F55378E27908A3E0F267
:101C900018D9FA754F0175500175520175510078C8
:101CA000F0307A129005D8E014F208A374FFF2081D
:101CB000B800F4021CBD74FFF208B800FB7577FF92
:101CC0007578FF12184122E5F025E0245DFAD2680C
:101CD000E552B40113E551700FE550B40103021C45
:101CE000E6B431004002C2681247B2A902755C0432
:101CF00075A004E030E71E306D199005CAE0042598
:101D0000E0F582E0F8A3E02411F582E438F583E001
:101D1000021D15746425E0F8E2700877E509770480
:101D2000021D79306806A3A3C26880C7FF08E2FEDF
:101D3000A3E0901855AAF0CA935202F4FB9004CE87
:101D4000E05B4AF0F490FF02F08F838E82A3A374CD
:101D500007C395F025E02582F58250020583E02E29
:101D6000F7A309E03FF7740A25F02582F5825002B7
:101D7000058374DB25F0F8E0F274F025F025F0F827
:101D800074FFF208F2C0F0E5F09018559312175A5C
:101D9000755C0375A00378007933D0E0C4F5F0E2F8
:101DA00020E7080808080808D9F5225470B5F0F3B0
:101DB000E4F280EFC267755C0475A0049005CEE084
:101DC00030E702746425E0F8E270097554837553B6
:101DD00006021DF5F58308E22412F5825002058300
:101DE000E0F554A3700CE0700A7554837553060235
:101DF0001DF5E0F553754F01755001755201755190
:101E0000007577FF7578FF227E08EE83F0A30EEE53
:101E1000B46AF82262002A00310038003F00460010
:101E20004D0054005B0000000000000000000000B6
:101E3000204E4F2050415254204E414D452080FFAE
:101E4000FF0080000080FFFF0080000080FFFF0097
:101E500080000080FFFF0080000080FFFF00800006
:101E60000080FFFF0080000080FFFF0080000080F6
:101E7000FFFF008000009004D1E0F8A3E0F9AA6D14
:101E8000AB6EAC6FAD70121EB81EEE7006EF700731
:101E9000021EA4B4FF011FECB500EBEDB501E71283
:101EA0001EA880DA121EA822AC6DAD6E121EB8EC10
:101EB000B56FF9EDB570F5228A828B83E0A3AA8213
:101EC000AB838C828D83F0A3AC82AD83229004DA45
:101ED000E0901EF125E050020583FA9310A908F561
:101EE0007EEA0493F57F22F57EEA0493F57FD2A97A
:101EF0002285EE85EE85EE85EE85EE85EE85EE8516
:101F0000EE85EE85EE85EE85EE85EE85EE85EE8539
:101F1000EE85EE85EE85EE85EE85EE8BBE9107951E
:101F2000DA9A469E58A21AA594A8CFABD0AE9FB11C
:101F30003FB3B5B605B832BA3FBC2FBE04BFC1C16E
:101F400066C2F7C474C5DFC739C883C9BFCAEDCC40
:101F50000ECD23CE2DCF2CD021D10DD1F0D2CAD38E
:101F60009CD467D52BD5E8D69FD74FD7FAD89FD921
:101F70003FD9DADA71DB02DB90DC19DC9EDD1FDD94
:101F80009DDE17DE8EDF02DF73DFE0E04BE0B3E1C2
:101F900019E17CE1DCE23AE296E2F0E347E39DE31B
:101FA000F0E442E492E4E0E52CE577E5C0E607E6FC
:101FB0004DE692E6D5E716E757E796E7D4E811E84D
:101FC0004CE886E8C0E8F8E92FE965E99AE9CEEA45
:101FD00001EA34EA65EA96EAC5EAF4EB22EB4FEB54
:101FE0007CEBA8EBD3EBFDEC27EC50EC78ECA0EC11
:101FF000C7ECEDED13ED38ED5DED81EDA5EDC8ED30
:10200000EAEE0CEE2EEE4FEE70EE90EEAFEECFEE6F
:10201000EDEF0CEF2AEF47EF64EF81EF9DEFB9EFA3
:10202000D5EFF0F00BF026F040F05AF073F08CF0A2
:10203000A5F0BEF0D6F0EEF106F11DF134F14BF152
:1020400061F178F18EF1A4F1B9F1CEF1E3F1F8F29A
:102050000DF221F235F249F25CF270F283F296F25F
:10206000A9F2BBF2CEF2E0F2F2F304F315F327F398
:1020700038F349F35AF36AF37BF38BF39BF3ABF337
:10208000BBF3CBF3DBF3EAF3F9F408F417F426F42B
:1020900035F443F452F460F46EF47CF48AF497F46B
:1020A000A5F4B2F4C0F4CDF4DAF4E7F4F4F501F5F4
:1020B0000DF51AF526F533F53FF54BF557F563F5B4
:1020C0006EF57AF586F591F59CF5A8F5B3F5BEF5B4
:1020D000C9F5D4F5DFF5E9F5F4F5FFF609F613F6E1
:1020E0001EF628F632F63CF646F650F65AF663F639
:1020F0006D78E0755C0575A00574801221141221BD
:102100000674C01221147F1090FF09E2F012212101
:1021100008DFF82290FF08F01221210000000000E3
:1021200022C0E07413D5E0FDD0E02212213080C13E
:10213000755C0575A00578E07F00EF93F2080FBF8E
:1021400020F8229022C9122130755C0475A0047811
:10215000CAE2FB25E0F8E2602FF58308E22412F5DD
:1021600082E43583F583E0A37003E0601B740825E7
:1021700082F582E43583F583755C0575A00578F1F9
:102180007F0EA3E0F208DFFA740D8BF01221EE74DB
:102190008D80819022A9122130755C0575A005788B
:1021A000CAE2FB0425E0F8E26019F58308E2F58253
:1021B000E0A3B41203E0600BA378F17F0EA3E0F27A
:1021C00008DFFA740D8BF01221EE748D02211424B5
:1021D0003090FF09F01221210000000022755C05FB
:1021E00075A00578E07F207420F208DFFC22755C82
:1021F0000575A00578E028F8E5F07F00B46400409C
:102200000594640F80F6F5F0EF60042430F208E5E1
:10221000F07F00B40A004005940A0F80F6F5F074D0
:10222000302FF208743025F0F20220F1755C05754C
:10223000A00578E028F8E5F07F00B464004005943C
:10224000640F80F6F5F0EF2430F208E5F07F00B47B
:102250000A004005940A0F80F6F5F074302FF2085A
:10226000743025F0F20220F1C0E0C4122278D0E0F0
:102270001222787420F20822540FB40A0040052478
:1022800037F208222430F208222A20414C455349D3
:1022900053204D4D542D38202A2A2056455253495B
:1022A0004F4E20312E3131202A2053454C45435486
:1022B00020534F4E4720787820222020454D5054FF
:1022C0005920534F4E472020222053454C4543541C
:1022D000205041525420787820222020454D5054DF
:1022E000592050415254202022534F4E4720787895
:1022F00020535445502061616150415254207979F6
:102300002042454154207A7A7A202048415244574D
:1023100041524520425920202020204B4549544815
:10232000204241525220202020504C4159494E47D2
:1023300020504152542020616120202042454154C8
:10234000207878782020202020504152542061614C
:10235000204E4558543A2062622020204245415484
:1023600020787878202020202053454C4543542065
:1023700054484520545241434B2020544F2052454D
:10238000434F5244204F4E20205245435244494E21
:1023900047205041525420787820434F554E5420C6
:1023A000444F574E2D2D2079795245435244494E82
:1023B00047205041525420787820202042454154F3
:1023C000207979792020202020202020205041527F
:1023D0005420787820202020204C454E4754482017
:1023E0007979792042454154534348414E474553FA
:1023F000205041525420544F504C454E4754482091
:10240000797979204245415453204C454E475448F0
:10241000204348414E4745442020202020202020B2
:1024200020202020202020202020434F50592043CE
:102430004F4D504C45544520202020202020202066
:1024400020202020202020202020434F50592046AB
:10245000524F4D20504152542020787820544F2024
:102460005041525420797920202046524F4D2078F7
:102470007820544F20797920204F4E4C59204E4FD0
:1024800054455350495443482042454E44414654D4
:102490004552544F554348434F4E54524F4C45526A
:1024A0005350524F472043484E4745535953544584
:1024B0004D2045582E4D494449204348207A20203C
:1024C000434F50592046524F4D20534F4E472020E6
:1024D000787820544F20534F4E4720797920202080
:1024E00020534F4654574152452042592020202026
:1024F000204D41524355532052594C452020202015
:10250000455241534520434F4D504C4554452020A2
:1025100020202020202020202020202020202020BB
:102520004552415345205041525420207878202074
:102530002020202020202020202020202020204576
:1025400052415345204F4E4C59204E4F5445535005
:10255000495443482042454E444146544552544F05
:10256000554348434F4E54524F4C45525350524F8F
:10257000472043484E474553595354454D204558ED
:102580002E4D494449204348207A2020455241534A
:102590004520534F4E4720207878202020202020AF
:1025A0002020202020202020202020534F46545738
:1025B0004152452042592046415354464F525741BB
:1025C00052442044455349474E532053454C4543BC
:1025D00054203220545241434B532020544F204228
:1025E00045204D4552474544202020545241434BFD
:1025F00053204D455247454420544F2020534543D6
:102600004F4E4420545241434B2020534554204DBB
:10261000494449204348414E4E454C20202020202B
:1026200020202020202020202020205155414E54C1
:10263000495A4520544F20312F78784E4F54452029
:1026400053544152542020202020205155414E54B3
:10265000495A4520544F20312F78784E4F54452009
:102660005354415254202620454E445155414E5416
:10267000495A4520544F20312F78784E4F544520E9
:10268000454E4420202020202020205155414E54EA
:10269000495A4520544F20312F78784B45455020DA
:1026A0004455524154494F4E202020205155414E0F
:1026B00054495A4520444F4E4520202020202020B8
:1026C000202020202020202020202053484946542C
:1026D00020545241434B2054494D457878782F334C
:1026E00038347468204E4F54455320205452414E84
:1026F00053504F53452055502020202078782053A8
:10270000454D49544F4E4553202020205452414EB0
:1027100053504F534520444F574E20207878205334
:10272000454D49544F4E4553202020205452414E90
:1027300053504F534520444F4E4520202020202009
:102740002020202020202020202020202054454D03
:10275000504F203D2078782020202042454154537E
:1027600020504552204D494E555445534F4E472019
:1027700054454D504F2053415645442020202020A1
:1027800020202020202020202020205245434F526E
:1027900044204D49444920202020204E4F54455389
:1027A0003A202020202020207878785245434F522C
:1027B00044204D494449202020202050495443487A
:1027C0002042454E443A20207878785245434F5273
:1027D00044204D4944492020202020414654455260
:1027E00020544F5543483A207878785245434F5209
:1027F00044204D4944492020202020434F4E54522C
:102800004F4C4C4552533A207878785245434F52BA
:1028100044204D494449202020202050524F472039
:102820004348414E47453A207878785245434F52C5
:1028300044204D49444920202020205359535445D9
:102840004D204558434C3A207878785245434F52B2
:1028500044204F4E204D49444920202020434841E8
:102860004E4E454C3A202020787878434C4F434BCD
:1028700020534F555243453A20202020202020202D
:1028800020202020202020202020204D49444920A5
:10289000434C4F434B204F55542020454E41424C12
:1028A000453A2078787820202020204155544F2028
:1028B0005354415254202020202020454E41424C68
:1028C000453A207878782020202020434C49434BFB
:1028D0002056414C554520312F78785245434F5270
:1028E0004420434C49434B20797920504C41592096
:1028F000434C49434B207878782020434F554E5421
:1029000020444F574E3A2079792020534156452094
:10291000414C4C205041525453202620534F4E4797
:102920005320544F20544150452020434845434BA9
:1029300020544150452044415441202020464F52CC
:10294000204552524F5253202020204C4F414420CA
:10295000414C4C2050415254532026534F4E475324
:102960002046524F4D205441504520204C4F414469
:10297000204F4E45205041525420202046524F4D6A
:1029800020544150453A2078782020204C4F414433
:10299000204F4E4520534F4E4720202046524F4D4A
:1029A00020544150453A207878202053454E442009
:1029B000414C4C2050415254532026534F4E4753C4
:1029C000204F5554204D4944492020534156494EEB
:1029D0004720544F20544150452E2E504152543AD6
:1029E000202D2D2020202020202020205441504523
:1029F000205452414E534645522020202020204151
:102A0000424F5254454420202020205645524946EA
:102A100059494E4720544150452E2E504152543A68
:102A2000202D2D202020202020202043414E2754DF
:102A30002052454144205448495320564552534959
:102A40004F4E2054415045202020204C4F414449B6
:102A50004E4720544150452E2E2020504152543A8A
:102A6000202D2D2020202020202020544849532094
:102A70004953204E4F5420414E20204D4D542D3867
:102A800020544150452020202020205441504520F2
:102A90005350454544204953202020544F4F205344
:102AA0004C4F5720202020202020205441504520EA
:102AB0005350454544204953202020544F4F204631
:102AC000415354202020202020202020544F4F20EC
:102AD0004D414E5920535445505320202020494EFB
:102AE00020534F4E47202020202020205441504585
:102AF000205452414E534645522020202020434F1F
:102B00004D504C4554454420202020444154412000
:102B10004D4159204245204241442E204552524FBA
:102B2000525320494E205441504520535441525451
:102B300020504C4159494E472020205441504520B7
:102B40004E4F572E2E2E20202020204C4F414449FE
:102B50004E47205041525420787820504152543AE8
:102B6000202D2D20202020202020204C4F41444982
:102B70004E4720534F4E4720787820504152543AC8
:102B8000202D2D2020202020202020494E5345524A
:102B900054204E4F54452020202020415420787846
:102BA000782F797920202020202020494E5345522B
:102BB00054205043482042454E44204154207878C8
:102BC000782F797920202020202020494E5345520B
:102BD000542041465420544F55434841542078785E
:102BE000782F797920202020202020494E534552EB
:102BF0005420434F4E54524F4C4552415420787804
:102C0000782F797920202020202020494E534552CA
:102C1000542050524F472043484E47415420787823
:102C2000782F797920202020202020202045444919
:102C30005420534F4E47207878202053544550203D
:102C400061612020504152542062622020494E533D
:102C50004552542053544550202020535445502071
:102C60006161202050415254206262204E4557201D
:102C700050415254204E414D4520202020202053C9
:102C8000544F524544202020202020204E455720DC
:102C9000534F4E47204E414D4520202020202053A9
:102CA000544F52454420202020202053454E444973
:102CB0004E47204F55542044415441544F204D49D4
:102CC00044492E2E2E2E2E2E2E2E2E524543454971
:102CD00056494E472044415441202046524F4D20F2
:102CE0004D4944492E2E2E2E2E2E2E52454D414911
:102CF0004E494E47204D454D4F525920207878205F
:102D00002050455243454E542020202042554D4DE1
:102D100045522C2044554445212020204D454D4FFF
:102D200052592049532046554C4C202020204552D2
:102D300041534520535445502020205354455020A2
:102D4000616120205041525420626220535445500A
:102D500020494E5345525445442020202020202015
:102D600020202020202020202020202020535445D7
:102D7000502045524153454420202020202020202F
:102D800020202020202020202020202020454E44CC
:102D9000204F4620545241434B2020202020202009
:102DA00020202020202020202020202020455241AB
:102DB0005345204556454E54202020202045564559
:102DC0004E542045524153454420202020202020AD
:102DD0002020202020202020202020204556454E45
:102DE0005420494E53455254454420202020202051
:102DF0002020202020202020202020E524543E6078
:102E0000070375F000022E13E523543EC360100340
:102E100075F0051305F050FBE5F0B40A02E4D32287
:102E20009004CEE06521F0F490FF02F022302A12E7
:102E300090FF04E0106D08D26D54BFF0022E4244A2
:102E400040F030291290FF04E0106E08D26E54DF7B
:102E5000F0022E574420F02290FF0AE54EF0E54D97
:102E6000A3F0A3D0E0F0A3D0E0F09004EE7414F04F
:102E7000754E77754D2E229004EE3037047414F0A1
:102E800022E014F060012290FF0AE0F54EA3E0F585
:102E90004DA3E0F5F0A3E0F58285F083E473206CA8
:102EA00024121C0D785D7908E62404F58208E436C6
:102EB000F58308E020E706D9EFE4022EC17409C3C8
:102EC000999004CDF0021A95C204C205C261900423
:102ED000D4E0701AC263C26B90FF04E04402F012A7
:102EE00010E87577FF7578FF12315BD205229004E8
:102EF000D9E0700122C268147002D268757700753B
:102F000078009023891221309004CAE0F5F0740E05
:102F10001221EE9004D9E004F5749004EC7430F0C2
:102F2000E574F5F0741E1221EED2D4D2D3120B2622
:102F3000C2D3C2D42068031208089004ECE014F055
:102F400070327430F012055E122E2D122E20C0E069
:102F50005521600312175AD0E0F45521600312176F
:102F6000CE3004030210E830050A1210E87577FF2E
:102F70007578FF22E57D70083068AE12092280A9BD
:102F8000157D154FE54F70A11574E5746018147028
:102F900002D2689004D8E0F54F9004D6E06004B205
:102FA000B5B2B5022F207577FF7578FF754F010513
:102FB0007D2290FF0FE0700122E5F0D2D4755C0015
:102FC00075A000C2AC206404D299D264F309D2ACDB
:102FD000C2D42290FF0FE0700122307B0AC27B1026
:102FE0007C0575F0FB80CB307A36E5522401D4F8AD
:102FF000E43551D4B55329E8B554259005CDE00406
:10300000F01247B2E078CEF220E706121C0D023033
:10301000209005CDE4F01247B2E078CEF2121C0DFC
:103020001230260230ACE5782401F8E43577F974E3
:10303000181230D9FF75F018E8A4FAABF0E975F072
:1030400018A42BFBEAC39401F578EB9400F577E51F
:10305000502FF550E54F2FF54F307A4D9005CDE0CC
:103060006047F574E4F0AA00AB011247A178CE7571
:103070008304E225E0F582E070077C837D06023060
:1030800091F8A3E02412F582E438F583E0FCA3E094
:10309000FD123104E82AFAE93BFB78CDE204F2B5EF
:1030A00074C81247A1A802A903024915D2D4755CBD
:1030B0000075A000C2AC206404D299D26474F2F30B
:1030C00009E500A2E7C2E7F309E50133C2E7F30926
:1030D00074FBF309D2ACC2D4227F107C007D00FEC9
:1030E000C3E833F8E933F9EC33FCED33FD700AEC57
:1030F000B506005004DFE9EC22ECC39EFCED940021
:10310000FD0880F1ECC4540F75F00AA4F8EC540FDC
:1031100028F8ED75F064A428F8E435F0F9E8C394D4
:1031200001F8E99400F9E8C333F8E933F9E8C33367
:10313000F8E933F922902CEB1221309004D3E0F817
:10314000A3E0C313F9E813F8E9C313F9E813F8741B
:103150009E1230D988F074120221EE902D0B1221AC
:103160002B780079007A0CD8FED9FCDAFA2280FE9E
:1031700090236912212B121C0D90FF04E054FDF0E6
:10318000785D790875F0017C00E62404F58208E496
:1031900036F58308E030E704EC45F0FCE5F023F574
:1031A000F0D9E68C4A7549FF750D019004CCE0908A
:1031B00004CDF09031BD85824E85834D22203703AA
:1031C000023246302C2F90FF0274FFF012324C1264
:1031D00031359031DC85824E85834D22305C012271
:1031E0007520007521007522007523007524007577
:1031F00025000231707808E52133F521501990043B
:10320000CDE0B50004E402320AE8F090326993554B
:103210004990FF02F0D26CD8DE7520007521007550
:103220002200752300752400752500D50D17750D36
:1032300028E549654AF5499004CDE09032699355F7
:103240004990FF02F02212324C0232BB121A9590C2
:1032500004CCE090FF04600A14F5F0E054FDF0D2D5
:103260006322E04402F0C26322FFFEFDFBF7EFDFC2
:10327000BF7F854E82854D83E473754C001233A960
:10328000D27D90328C85824E85834D2230482C3001
:103290001606E54C0402329E30170AE54C1454031E
:1032A000F54C1233A9E54C75F003A49032AF7302CC
:1032B00032E402331702332F023347206F17C269FB
:1032C000307A091221939004B70232DD1221439023
:1032D00003C80232DDC27D120FE290163B85824E9A
:1032E00085834D22122DFB500D9004D514B4FF029E
:1032F0007409F01233A930120F9004D5E0B4090319
:1033000002330804F01233A930110B9004D5E060A9
:103310000514F01233A9223012099004D67401F07A
:103320001233A93011089004D6E4F01233A92230E8
:1033300012099004D77401F01233A93011089004D7
:10334000D7E4F01233A922122DFB502C20711AD28F
:1033500071F54A1221CF74F01221CF74CD122114CD
:103360009004EE7400F0023388F8E54A75F00AA480
:10337000289004D9F01233A930710D9004EEE014B6
:10338000F07005C2711233A930120F9004D9E0B465
:10339000630302330804F01233A930110B9004D9EF
:1033A000E0600514F01233A922C271E54C20E1540B
:1033B0009028CB1221309004D5E090345725E0F8C6
:1033C00093C80493F99005EEE8F0A3E9F09004D6D1
:1033D000E075F003A4F5F090347593F805F0E5F08E
:1033E00093F905F0E5F093FA9005FDE8F0A3E9F014
:1033F000A3EAF01220F1E54C600574CD0234477465
:103400008E0234479028EB1221309004D7E075F0FB
:1034100003A4F5F090347593F805F0E5F093F90501
:10342000F0E5F093FA9005EBE8F0A3E9F0A3EAF0F9
:103430009004D9E0F5F0741C1221EEE54C30E00563
:1034400074CC023447748B1221149004D5E090346C
:103450006B939004D8F0223220342036203820316B
:103460003231363234333234383634C06040302072
:1034700018100C08064F46464F4E20754C0012356A
:1034800061C271C272D27D90349185824E85834D26
:10349000222040030232BB122DFB506320711FD249
:1034A00071F54A1221CF74F01221CF74F01221CF9E
:1034B000748B1221149004EE7400F002350F207208
:1034C00010D272F5491221CF9004EE7400F002354B
:1034D0000FC271C272F9E54A75F064A420D217F8E0
:1034E000E54975F00AA428400D29400AB41400509B
:1034F0000774140234F874FF9004DAF01235613066
:10350000710D9004EEE014F07005C2711235613057
:10351000120B9004DAE0046004F012356130110FF0
:103520009004DAE0B4140302352F14F01235613040
:10353000072E206F2B307A289004DAE0F5F0900502
:10354000CAE00425E0F582E0F8A3E0F5828883A3D1
:10355000A3E5F0F090276B12212B122E5812356143
:103560002290274B1221309004DAE0F5F0740A1211
:10357000222C748A122114021ECD754C0012364D75
:10358000D27D90358C85824E85834D222058030252
:1035900032BB30160AE54C04B4070FE40235AA30FA
:1035A000170DE54C14B4FF027406F54C12364D307D
:1035B0001204C30235BA301109D390361EE54C23EC
:1035C0002373E54CB40656122DFB50412071246044
:1035D00003B40149D271F54A1221CF74F01221CF00
:1035E00074F01221CF74CE1221149004EE7400F006
:1035F00002361DC271F9E54A75F00AA429B411001A
:103600004002741014F54812364D02361D30710D0B
:103610009004EEE014F07005C27112364D229273E0
:10362000802B92748027927580239276801F9277E8
:10363000801B92788017400BE5480430E40D740F2E
:1036400002364BE5481430E70274FFF548E54C2399
:1036500023232323248BF582E43427F5831221309E
:10366000C3903692E54C232373400690347802369B
:1036700074903475E493F8E4A393F9A3E493FA9077
:1036800005FDE8F0A3E9F0A3EAF01220F174CD0201
:103690002114727380D3727480CF727580CB72766E
:1036A00080C7727780C3727880BF8548F020F71892
:1036B0007A20E5F02401D4F5F0540F2430F9E5F038
:1036C000C4540F2430F880B77841794C7A4C80AFDD
:1036D000754C0075830474DB254CF5821237C6C225
:1036E00071C272D27D9036EF85824E85834D222045
:1036F0004E030232BB7808E52133F5214005D8F7A7
:1037000002371218884C75830474DB254CF582123D
:1037100037C675830474DB254CF582122DFB503EB1
:103720002071236003B4014FD271F54A1221CF7882
:103730000874F01221CFD8F974C51221149004EE48
:103740007400F0023777C271F9E54A75F00AA429CE
:10375000B4110040027410F01237920237773071C2
:10376000169004EEE014F0700EC27175830474DBE1
:10377000254CF5821237C630120CE004B411030256
:103780003786F0123792301108E0600514F01237D6
:103790009222755C0475A00478CAE225E0F8E2F58F
:1037A000F0087407C3954C2414F9E229F9E435F0C4
:1037B000F55CF5A0E0F3755C0475A00478CCE22418
:1037C000DAF8E214F512E0602AF54990260B12218E
:1037D00030E549F5F074141221EE74C4122114E599
:1037E0004C90326A9390FF02F075830474DB254C91
:1037F000F582229037FB12212B80DF534554204D58
:10380000494449204348414E4E454C2020202055F4
:103810004E4348414E474544202020754C00754A90
:10382000FF75490090FF02E4F01238BC90383685ED
:10383000824E85834D22205B030232BBE549700E28
:10384000E521601590FF0274FFF00549054AE52166
:10385000654AF54AF490FF02F0301606E54C040282
:10386000386830170AE54C145403F54C1238BC1272
:103870002DFB500D9004E314B4FF027409F01238CC
:10388000BC30120F9004E3E0B4090302389304F053
:103890001238BC30110B9004E3E0600514F01238CC
:1038A000BC3007179026AB12212B9004E3E0F5F013
:1038B000E54A1238F1122E581238BC2290262BE518
:1038C0004C23232323232582F582E43583F58312B9
:1038D00021309004E3E090345725E0F893C8049336
:1038E000F99005EEE8F0A3E9F01220F1748E0221C0
:1038F00014F50990346BE5F093F50E9004CCE0F5E7
:103900000F750D00E54CB40203023C1AE50903F5FE
:103910000920E703023C05E50D9004CD04F0121ADE
:10392000959004D1E0F50AA3E0F50B9004CDE50DE8
:103930002402F0121A95E50D9004CC04F025E02441
:103940005BF8866D866F08866E86709004CFE0F512
:1039500071A3E0F5727C007D00E50E03FE7F00851B
:103960006F82857083E58370030239F2E0C261C221
:10397000E7F5F0A3E0FAC39CA3E0FB9D5067A3E04A
:1039800030E74CF9A3E0F8A3E0F508A3E0F573A352
:1039900085826F858370857182857283E5F02061F1
:1039A0000AD2E7D261F0EAA3F0EBA3F0E9A3F0E8D2
:1039B000A3F0E508A3F0E573A3F0A38582718583E6
:1039C00072856F82857083E020E7A2F5F080AFA357
:1039D000E030E7067570000239F2A3A3A385826F79
:1039E00085837080DCA3E020E708A3E030E703755F
:1039F0007000856D82856E83C261E5837003023A33
:103A0000E1E0C2E7F5F0A3E0C3F50C9EA3E0F57496
:103A10009F4003023AD3A3E030E703023AC7F9A379
:103A2000E030E706756E00023AE1F8A3E0F508A37E
:103A3000E0F573A385826D85836E857182857283BF
:103A4000E5F020610AD2E7D261F0ECA3F0EDA3F03B
:103A5000E9A3F0E8A3F0E54CB40303023AA6E5734A
:103A600070020508E50CC39CF8E5749DF95019E552
:103A70007328F573E508395006F50845737021750C
:103A80000800757301023AA6E57328F573E5083955
:103A9000F50820E702500975730075087F023AA601
:103AA000E57370021508E508A3F0E573A3F0A3859C
:103AB0008271858372856D82856E83E030E70302B3
:103AC0003A02F5F0023A16A3A3A3A385826D85837B
:103AD0006E80E8A3E020E709F9A3E030E703756E04
:103AE00000856F82857083E5837003023B64E0C2CA
:103AF000E7F5F0A3E0B5046CA3E0B50567A3E030FB
:103B0000E74CF9A3E0F8A3E0F508A3E0F573A3857B
:103B1000826F858370857182857283E5F020610AEA
:103B2000D2E7D261F0ECA3F0EDA3F0E9A3F0E8A3B3
:103B3000F0E508A3F0E573A3F0A385827185837295
:103B4000856F82857083E020E71AF5F080AFA3E0EF
:103B500030E706757000023B64A3A3A385826F85DE
:103B6000837080E2E5707004E56E6011E50E2CFC58
:103B7000E43DFDE50E2EFEE43FFF02395F857283D2
:103B80008571827480F074FFA3F0A3F0E4A3F07455
:103B900080A3F0E4A3F0A3F0A385827185837290E3
:103BA00004CAE025E0F582E0FBA3E0FA7408C395BF
:103BB0000D25E02AFCE43BFD9004CFE0C39AFEE52E
:103BC00071F0A3E09BFFE572F08C828D83EEF0A391
:103BD000EFF0E4B50D0E8A828B83E571C39AF0A3F2
:103BE000E5729BF09004D1E50AF02401F50AA3E503
:103BF0000BF03400F50B9004D3E50AC39571F0A3E4
:103C0000E50B9572F0050DE50DB40803023C1202B8
:103C1000390CE54C146003023CB1121C0D750D000B
:103C2000E50903F50920E703023CA4E50D25E0249E
:103C30005DF88682088683E0A330E706E0FAA3E019
:103C4000FBA3E0A330E705A3A3A380EBE020E754A8
:103C5000A3E0F9AF83A3E0F870010915828F83E533
:103C60000EC31328F8E439F9EA28F8EB39F9E50E20
:103C70001230D9E8850EF0A4A8F0C9850EF0A4286A
:103C8000C9C39AF8E99BF9400328700478017900C8
:103C9000E930E704797F79FFE8700119E9F0A3E8DA
:103CA000F0A38093050DE50DB40803023CB1023C7E
:103CB000209004CDE50FF0121A959004CAE025E09B
:103CC000F582E0F5F0A3E02412F582E435F0F58307
:103CD000E0FCA3E0FD123104E875F018A4F8E9A9AE
:103CE000F075F018A429F9C04C754C0012496BD03E
:103CF0004C22754C00754A0075490090FF02E4F0B3
:103D0000123D5F903D0D85824E85834D222032030A
:103D10000232BBE549700DE521601490FF0274FF8B
:103D2000F0754901E521654AF54AF490FF02F0304B
:103D3000160AE54C04B4170FE4023D4730170DE5B1
:103D40004C14B4FF027416F54C123D5F30070F900F
:103D500024FF12212B124CDA122E58123D5F2290B2
:103D6000251F122130E54C603A90253E124195E521
:103D70004CB408004002740775F00AA4243AF58296
:103D8000E5F03425F5837F0A124197E54CC394078B
:103D90004011243178FEB43A004007940A08F21822
:103DA0007431F29004CAE0F5F0740D0221EE754C06
:103DB00000755C0475A00478CAE225E0F8E2F5839A
:103DC00008E22412F582E43583F583E0F549A3E0A7
:103DD000F54AC271C272903DE285824E85834D02E2
:103DE0003E99205C030232BB301603023DF13017CE
:103DF0000AE54C045401F54C123F55122DFB50734B
:103E000020711FD271F54A1221CF74201221D17472
:103E1000201221D174C81221149004EE7400F00213
:103E20003E81207215D272F5491221CFE549C4F5C1
:103E3000499004EE7400F0023E81C271C27245499D
:103E4000F549700AE54A7006754901023E70E54A77
:103E5000C39406401B600C30E710754A007549009A
:103E6000023E70E549B483004006754982754A06F2
:103E7000123F5530710B9004EEE014F07003023DD8
:103E8000B1301210C212E5492401D4F549E4354A93
:103E9000F54A80BA301132C2111549E549540FB4C0
:103EA0000A00E549400654F04409F549B4A0004031
:103EB00008540F4490F549154AE54A7091E5497058
:103EC0008D754A00754901808530070620710330E1
:103ED0007203023F54E54A7004E54960719004D4CE
:103EE000E07009902D0B12212B023F4E90240912F5
:103EF000212B755C0475A00478CAE225E0F8E2F590
:103F00008308E22412F582E43583F583E0FCE54979
:103F10002401D4F0F56DA3E0FDE54A3400F0F56E20
:103F2000123104E875F018A4F8AAF0E975F018A4A5
:103F30002AAD6EF56EAC6D886D123104E875F0181F
:103F4000A4F8AAF0E975F018A42AF912496B122E08
:103F500058123F5522E54C70149023C9122130901D
:103F600004CAE0F5F074091221EE023F739023E9D0
:103F70001221309005F7E54A2430F0A3E549C454F6
:103F80000F2430F0A3E549540F2430F01220F174CF
:103F9000C7022114754C00307A06122193023FA308
:103FA00012214374C1122114903FB285824E858341
:103FB0004D22205F030232BB122DFB501C2430F532
:103FC000F0755C0575A005E54C24F1F8E5F0F212FA
:103FD00021D1E54C24C112211430160AE54C04B459
:103FE0000E0FE4023FF130170FE54C1430E7027476
:103FF0000DF54C24C1122114755C0575A005E54C26
:1040000024F1F830120AE20430E712747F02401DF6
:10401000301115E21420E60520E5027420F2122189
:10402000D1E54C24C1122114300715124041902CC7
:104030006B307A03902C8B12212B122E58023F9456
:1040400022307A1478CAE20425E0F8E2F58308E227
:10405000F582A3A3A302406C9004CAE025E0F58298
:10406000E0F9A3E0241CF582E439F58378F1E2F06D
:1040700008A3B8FFF91220F174C0022114754C0096
:1040800012410790408D85824E85834D222050033A
:104090000232BB30160AE54C04B4030FE40240AB15
:1040A00030170DE54C14B4FF027402F54C124107B1
:1040B000E54C703C90FF0EE524540E600A78FE1328
:1040C0000850FCE80240D6301205E004B403073083
:1040D0001134E06031146011C279B4020EC289C299
:1040E000A9D2A8757D00024102D279D2A90241026B
:1040F0003012081241A67401024102301108124127
:10410000A6E4F01241072290286BE54CC4232582D7
:10411000F58250020583122130E54C701B90FF0E92
:10412000E0C49041642582F58250020583124195D6
:104130001220F174C00221141241A6E060069034EE
:1041400078024147903475E493F8E4A393F9A3E42B
:1041500093FA9005F8E8F0A3E9F0A3EAF01220F151
:1041600074C80221144D494449202620494E544523
:10417000524E414C20494E5445524E414C204F4ED8
:104180004C59202020544150452053594E4320493A
:104190004E202020207F10755C0575A00578FFEF6C
:1041A00093F218DFFA22B4010690FF0F0241B29099
:1041B000FF1A221242159041C085824E85834D22FE
:1041C0002032030232BB3007179024FF12212B123A
:1041D00041E19005CDE4F01247A1122E581242158C
:1041E00022755C0475A0049005CAE00425E0F58200
:1041F000E078D0F2F5F0A318E0F582F285F083E0E4
:10420000FAA3E0FB78D3E22AF208E23BF285F083DE
:1042100015820243F490258B1221309005CAE0F5F7
:10422000F0740D0221EE755C0575A00578CAE204F4
:10423000F56D25E0F8E27005740102316E78CBE28D
:1042400004F56EB56D01229004CF79CFE0F3A30998
:10425000E0F39004D179D1E0F3A309E0F39004D323
:1042600079D3E0F3A309E0F3E56D25E0F8E2F58307
:1042700008E2F582E43583E0B41224C082C083A34F
:10428000E0D083D082701818E4F2E58278CFF2E5AE
:104290008308F2F978D3E22412F208E23400F21231
:1042A0001943E56E25E0F8E2701279D0E3F583F268
:1042B0001908E3F582F21243F40242C9F58308E2D9
:1042C000F582A3A3E09004DAF078CAE56E14F290C8
:1042D00004CF79CFE3F0A309E3F09004D179D1E3DF
:1042E000F0A309E3F09004D379D3E3F0A309E3F05A
:1042F0009005CDE4F01247A1121C0D22C263900478
:10430000B785824E85834D755C0475A00478CAE23A
:1043100078E4F278CB7464F21218A1755C0475A08D
:104320000478C8E2F583E4F208E2F582055C05A0B2
:104330007800E583F208E582F212440F9004CFE0A2
:10434000C39450F0A3E09400F09004D3E02450F024
:10435000A3E03400F078CCE278CBF278CA74FFF2B4
:10436000D27A12422612219390FF04E0448F54EF38
:10437000F0229003C885824E85834D755C0575A03B
:104380000578CAE278CCF278CB74FFF21242267537
:104390005C0575A0057800E2F583E4F208E2F58299
:1043A000155C15A078C8E583F208E582F2121E08B4
:1043B00078D3E2C39450F208E29400F278CFE2247A
:1043C00050F208E23400F278E4E278CBF278CA7472
:1043D00064F2C27A1218A1C26C122E9E122143906E
:1043E000FF04E0449B54FBF09004CE74FFF090FF78
:1043F00002E4F02212440F78CFE22412F208E234F1
:1044000000F278D3E2C39412F208E29400F2227E22
:1044100008EE83F0A30EEEB41AF822120078204EB4
:104420004F20534F4E47204E414D4520FF754C00C5
:1044300090FF04E054E7F09004CE74FFF01247A11F
:10444000121C0D9005CEE0F50FC26912473B754E68
:1044500055754D442230310B154BE54B7005754BAE
:1044600014D20130300B154BE54B7005754B14D24F
:104470000030062EC2069005CEE020E7259005CA42
:10448000E00425E0F582E0F5F0A3E0F58285F08315
:10449000E0B41008A3E0B402030244A2754C011278
:1044A000473B30020D9005CEE020E706754C021226
:1044B000473BE54CB40203024511E5216019122E79
:1044C000209005CEE020E70F9004CEE0FFE54C7091
:1044D000061247B2A3EFF0122DFB500302465730ED
:1044E000690D9004EEE014F07005C26912473B308C
:1044F000120CE50F04B464004001E402467A301166
:1045000010E50F6003B4FF05746302467A14024697
:104510007A30012BC2019005CEE020E7229005CD34
:10452000E0B4FE0302453F04F01247A1121C0D90B7
:1045300005CEE0F50F30E704E54C700812473B303C
:104540000019C2009005CDE0601114F01247A112CD
:104550001C0D9005CEE0F50F12473BE54C700302B1
:10456000462EB402030245E920360C754C00900536
:10457000CEE0F50F12473B20070302462E9004D4ED
:10458000E0605D902D4B12212B9004CEE0FF900552
:10459000CEE50FF01247B2A80FA907E0C8F0A3E0DC
:1045A000C9F0A3B8FFF51246C8122E589005CDE009
:1045B00004F01247A19005CEE0F50F9005CAE00483
:1045C00025E0F582E0F5F0A3E0F58285F083E0B424
:1045D0001008A3E0B40203754C0012473B02462EBC
:1045E00012315B12473B02462E203206754C0012F8
:1045F000473B300739902D6B12212B1247B2A8830D
:10460000A982A3A3E0FAA3E0FB89828883EAF0A34E
:10461000EBF0A3BAFFE8124709122E581247A190F7
:1046200005CEE0F50F30E703754C0012473B102E26
:1046300019201816201013202810202F0D20200AD2
:10464000201F07202D042026012290FF04E04408AB
:10465000F01232BB023272106918D269F57312215E
:10466000CF74F01221CF74CF1221149004EE740095
:10467000F022F8E57375F00AA428755C0575A005AD
:1046800078CEF50FE54C600412473B22E230E76C30
:10469000E50FF29004D1E0FAA3E014FB9004CEE021
:1046A000FF1247B2EAC39582EB9583500D9005CE79
:1046B00074FFF012315B12473B22E50FF0A3EFF0DD
:1046C000A31246C812473B2274FFF078CAE20425C1
:1046D000E0F8E2F58308E2F582E02402F0A3E0349A
:1046E00000F09004CFE02402F0A3E03400F0900446
:1046F000D3E0C39402F0A3E09400F022E50FF2129D
:1047000047B2E50FF012473B2278CAE20425E0F8F1
:10471000E2F58308E2F582E0C39402F0A3E094009E
:10472000F09004CFE0C39402F0A3E09400F0900472
:10473000D3E02402F0A3E03400F022E54C700690B0
:104740002C2B024751147006902C4B024751902D90
:104750002B122130755C0575A005E54C700A78CAEE
:10476000E2F5F0740C1221EE78CDE204F5F0741548
:104770001221EEE50F20E70AF5F0741E1221EE0279
:10478000478C78FE7420F208F21220F19004CEE0FB
:1047900090FF02F4F0E54CB402012274CE12211411
:1047A000221247B2E078CEF220E706A3E09004CED2
:1047B000F022755C0575A00578CAE20425E0F8E2F0
:1047C000F58308E2F58278CDE2C333F8E433F97477
:1047D0001128F8E439F9E58228F582E58339F58373
:1047E00022755C0275A00278BBE2700122D27CE4E3
:1047F000F208E223FC08E2C313FDEC13FC307A0854
:104800009005CDE4F01247A1121C0DE554C4540FDD
:1048100075F00AA4F8E554540F28F8E55375F064D0
:10482000A428F8E435F0F9E8C39401F8E99400F914
:10483000E8C333F8E933F9E8C333F8E933F9ECC3F3
:1048400098F5F0ED994032FDACF0307A1A9005CD34
:10485000E004F01247A19005CEE020E70280A99085
:1048600005CDE4F01247A1206D9E307A089005CD69
:10487000E4F01247A1121C0D228C6E8D6FEC75F0C6
:1048800018A4FCA8F0ED75F018A428FD785D756DEE
:10489000008682088683E583601AA3E0A3C39CE0B8
:1048A0009D5011A3A3A3A3A3E030E7F718A68208A5
:1048B000A68380E608056DE56DB408D5ECC39401C8
:1048C000F578ED9400F577E56E540390496793F51C
:1048D00050E56FC313F9E56E13F8E9C313F9E81354
:1048E0002401F8E439F9E8C39464F8E99400F9057F
:1048F0005150F31551E82464F8E875F00A84C44572
:10490000F0F5529004D8E0FAA804A9051230D9CAEB
:10491000C39A04F54FC000C05C307A2F9005D7E0F1
:104920009005D6F0755C0475A00478F09005D8E089
:10493000A360102578F208E57734FFF208B800EF9D
:1049400002495FE578F208E57780F09005D6E4F05B
:104950009004F07808E578F0A3E577F0A3D8F6D0D6
:104960005C855CA0D0002201493119880889097B47
:10497000FF7CFF124CA4E54C6003024ADC9004CC9F
:10498000E0F50F750D00E50D9004CD04F0121A95B9
:104990009004D1E0F50AA3E0F50B9004CDE50D24D9
:1049A00002F0121A95E50D9004CC04F025E0245B8A
:1049B000F8866D08866E9004CFE0F571A3E0F5727D
:1049C000856D82856E83E0F5F030E70DA3E0F8C3D6
:1049D0009508A3E0F995095064A3E0FAA3E0FBA3CE
:1049E000E0FDA3E0FCA385826D85836E85718285E1
:1049F0007283E5F0F0A330E706E8F0A3E9F0A3EA5C
:104A0000F0A320E727EC70010D28F56FE93DF57064
:104A1000E56FC39508F56FE5709509F5704009ECF1
:104A2000C3956FFCED9570FDEC70011DEBF0A3EDEF
:104A3000F0A3ECF0A38582718583728083857283F5
:104A40008571827480F074FFA3F0A3F0E4A3F07486
:104A500080A3F0E4A3F0A3F0A38582718583729014
:104A600004CAE025E0F582E0FBA3E0FA7408C395F0
:104A70000D25E02AFCE43BFD9004CFE0C39AFEE55F
:104A800071F0A3E09BFFE572F08C828D83EEF0A3C2
:104A9000EFF0E4B50D0E8A828B83E571C39AF0A323
:104AA000E5729BF09004D1E50AF02401F50AA3E534
:104AB0000BF03400F50B9004D3E50AC39571F0A315
:104AC000E50B9572F0050DE50DB4080D9004CDE5EC
:104AD0000FF0121A95124C7722024986C04AC0493B
:104AE000754A00754900E508C3956DF50CE5099513
:104AF0006EF50E500BE4C3950CF54AE4950EF5499E
:104B00009004CCE0F50F750D00E50D9004CD04F098
:104B1000121A959004D1E0F50AA3E0F50B9004CDAC
:104B2000E50D2402F0121A95E50D9004CC04F02551
:104B3000E0245BF8866D08866E9004CFE0F571A3E3
:104B4000E0F572856D82856E83E0F5F030E722A393
:104B5000E0F8C3954AA3E0F99549500DA3A3A3A398
:104B6000A3E030E7F7F5F080E6E8250CF8E9350E2C
:104B7000F9A3E0FAA3E0FBA3E0FDA3E0FCA3858298
:104B80006D85836E857182857283EB20E74CE5F03D
:104B9000F0A330E706E8F0A3E9F0A3EAF0A320E7EA
:104BA00027EC70010D28F56FE93DF570E56FC395B1
:104BB00008F56FE5709509F5704009ECC3956FFC39
:104BC000ED9570FDEC70011DEBF0A3EDF0A3ECF0A2
:104BD000A3858271858372024B437480F074FFA3B6
:104BE000F0A3F0E4A3F07480A3F0E4A3F0A3F0A397
:104BF0008582718583729004CAE025E0F582E0FB2E
:104C0000A3E0FA7408C3950D25E02AFCE43BFD906F
:104C100004CFE0C39AFEE571F0A3E09BFFE572F0DC
:104C20008C828D83EEF0A3EFF0E4B50D0E8A828BBB
:104C300083E571C39AF0A3E5729BF09004D1E50A75
:104C4000F02401F50AA3E50BF03400F50B9004D332
:104C5000E50AC39571F0A3E50B9572F0050DE50D1E
:104C6000B408119004CDE50FF0121A95124C77D0CC
:104C700049D04A22024B099004CAE025E0F582E0BF
:104C8000F5F0A3E02412F582E435F0F583E0FCA30F
:104C9000E0FD123104E875F018A4FBACF0E975F002
:104CA00018A42CFC121C0D785D868208868308E00F
:104CB00020E707A3A3A3A3A380F5A3A3A3E0A320B6
:104CC000E7F3E030E7EFE582C39403F58250021585
:104CD00083EBF0A3ECF0B86DD0229004CCE0C0E000
:104CE00090FF02E0F54A754908E54C7003024E8CCE
:104CF000B407004010C39407F50CC2687508FF752F
:104D000009FF024D2D14700ED268750CFF7508FF57
:104D10007509FF024D2D1425E0904EF7F5F093C56F
:104D2000F00493F50985F008750CFFC268750D0055
:104D3000E54A13F54A5003024E7FE50D9004CD0479
:104D4000F0121A959004D1E0F50AA3E0F50B900457
:104D5000CDE50D2402F0121A95E50D9004CC04F077
:104D600025E0245BF8866D08866E9004CFE0F56F31
:104D7000A3E0F570856D82856E83E583E0F5F0C272
:104D800061A3E0F8A3E0F9A3E0FAA3E0FBA3E0FC51
:104D9000A3E0FDA3EA20E70DEB30E703024DF73077
:104DA0006811024DEFE5F0C2E7B508004005B5090E
:104DB00000403CEBB50C03024DEF85826D85836EA0
:104DC000856F82857083E5F020610AD2E7D261F0B9
:104DD000E8A3F0E9A3F0EAA3F0EBA3F0ECA3F0ED75
:104DE000A3F0A385826F858370856D82856E83E0D5
:104DF000F5F020E78A8090857083856F827480F05B
:104E000074FFA3F0A3F0E4A3F07480A3F0E4A3F094
:104E1000A3F0A385826F8583709004CAE025E0F536
:104E200082E0FBA3E0FA7408C3950D25E02AFCE4B8
:104E30003BFD9004CFE0C39AFEE56FF0A3E09BFF3B
:104E4000E570F08C828D83EEF0A3EFF0E4B50D0EEB
:104E50008A828B83E56FC39AF0A3E5709BF0900480
:104E6000D1E50AF02401F50AA3E50BF03400F50BB7
:104E70009004D3E50AC3956FF0A3E50B9570F00598
:104E80000DE50DB40803024EE2024D30E54A33F55C
:104E90004A40289004CDE549F0121A95E5491425B9
:104EA000E0245DF886710886729004CFE0C3940711
:104EB000F573A3E09400F574120824D549CE90FF51
:104EC00002E0701E755C0475A00478CAE225E0F863
:104ED000E2F58308E22412F582E43583F583E4F0F9
:104EE000A3F09004CDD0E0F0122E9E754901754AD2
:104EF00000C268125523227C7D7B7C007A7A7B7D00
:104F00007E754C00754A00754900750F00C272C26B
:104F10007190FF02E4F0124FC3904F2385824E85BB
:104F2000834D222033030232BB20720CE521601333
:104F300090FF0274FFF0D272E5216549F549F490C3
:104F4000FF02F020160330170AE54C045401F54C1B
:104F5000124FC3122DFB502C20711AD271F54A1238
:104F600021CF74201221D174C21221149004EE7446
:104F700000F0024F94C271C54A75F00AA4254AF5A3
:104F80000F124FC330710D9004EEE014F07005C2A3
:104F900071124FC3301206E50F04B4640C301110C7
:104FA000E50F14B4FF03024FB0F50FC271124FC3E7
:104FB00030070F90272B12212B124FDE122E581282
:104FC0004FC3229026EBE54C600390270B12213053
:104FD000850FF074111221EE74C112211422121CDB
:104FE0000D785D90FF02E0FF7E08EF13FF405C86C6
:104FF0008208868318E0A982AA83F5F030E702A32D
:10500000A3A3E0A320E73FE020E740AB82AC838985
:10501000828A83E54C7016E5F05480C5F0547F25F4
:105020000F30E71BC3940C20E7FA02503FE5F05421
:1050300080C5F0547FC3950F5005240C20E7FB4535
:10504000F0F08B828C83A3A3A380AA0808DE9B7553
:105050000F0022754C00754A00754900750E0075E9
:105060000D019004CA307A039005CAE0F50FC272B0
:10507000C27190FF02E4F012516290508485824E1A
:1050800085834D222036030232BB207A44E521601D
:105090002320720CF50E90FF02F4F0D2720250B48D
:1050A000B50E030250B4C54990FF02F5F0E045F09B
:1050B000F0750D0130160AE54C04B4170FE40250E8
:1050C000CC30170DE54C14B4FF027416F54C125198
:1050D00062122DFB502C20711AD271F54A1221CF89
:1050E00074201221D174CD1221149004EE7400F0BA
:1050F000025112C271C54A75F00AA4254AF50F1271
:10510000516230710D9004EEE014F07005C271121E
:10511000516230120AE50F04B4640FE402512A30E0
:10512000110FE50F14B4FF027463F50FC271125131
:105130006230072090242912212B74FF90FF02F087
:105140001251DA122E5890FF02E50E60034549F421
:10515000F0125162D50D0A750D5090FF02E06549BD
:10516000F022307A0C9024BF1221309005CA0251EF
:10517000BB902449122130E54C603DB40800400248
:10518000740775F00AA4246EF582E5F03424F583E3
:1051900078EF7F0AEF93F218DFFA902468124195B6
:1051A000E54CB407004011242A78EEB43A004007D9
:1051B000940A08F2187431F29004CAE0F5F0E54C54
:1051C000600574160251C974111221EE850FF07436
:1051D0001C1221EE74CC122114229004D4E070042D
:1051E00012315B22307A0302554B9004CCE0C0E0D0
:1051F0009004CAE0C0E09004CBE50FF01218A19033
:1052000004EFE06009750A00750B00025226AC54E9
:10521000AD53123104E875F018A4F50AAAF0E97547
:10522000F018A42AF50BD268750CFF7508007509F3
:10523000FFE54C6030B407004008C39407F50C024A
:105240005265147009750CFF7508FF02526514252C
:10525000E0904EF7F5F093C5F00493F50985F0085A
:10526000750CFFC268750D00754A00E50E601E756D
:105270000A00750B00134004050D80F9850D4AE501
:1052800049600A754A00134004054A80F9E54A90CE
:1052900004CD04F0121A95E54A25E0245DF88682D3
:1052A000088683C269E0B4800AA3A3A3A3E030E721
:1052B00002D269E50E600E867018866F7571FF75F3
:1052C00072FF0252D89004CFE0C39407F56FF571D6
:1052D000A3E09400F570F5729004CAA881E6F0127C
:1052E0001C0D9004CAE50FF0E50D25E0245DF8865D
:1052F0006D08866EE56DB57108E56EB572030253F3
:10530000A5856D82856E83E0F5F030E719C261A353
:10531000E0250AF8A3E0350BF94008B4FF08B8C04F
:105320000040030253A5A3E0FAA3E0FBA3E0FCA323
:10533000E0FDA3EA20E70CEB30E7030253A5206869
:105340001080C4E5F0C2E7B5080040BBB5090050C5
:10535000B6E50C20E703B503AE85826D85836E90BC
:1053600004D1C3E0956FA3E0149570500C902D0B01
:1053700012212B750E010253A5856F82857083E57E
:10538000F020610AD2E7D261F0E8A3F0E9A3F0EAE5
:10539000A3F0EBA3F0ECA3F0EDA3F0A385826F855F
:1053A00083700252F4857083856F827480F074FF7D
:1053B000A3F0A3F0E4A3F07480A3F0E4A3F0A3F0BF
:1053C000A385826F8583709004CFE0FAE56FF0A328
:1053D000E0FBE570F0E56FC39AFAE5709BFB900483
:1053E000D3E0C39AF0A3E09BF0E4B54A179004CA57
:1053F000E025E0F582E0FCA3E0F5828C83E02AF072
:10540000A3E03BF0306928E50D24DBF582758304C9
:10541000E0F5F09004CAE025E0F582E0FCA3741BFF
:10542000C3954AF9E029F582E43CF583E5F0F0E51F
:105430000E600C121C0D9004EFE070120255010575
:105440000D054AE50DB4080302544E02528D900436
:10545000CAA881E6F0121C0D9004CAE50FF0900472
:10546000EFC0E0E013D0E0500302550125E0F582E3
:10547000758304E0F8A3E02412F582E438F583C2D2
:1054800068E06002D2682554D4F50A8583F0A3E071
:105490006002D2683553D4F50B158285F0833068ED
:1054A00020150AE50A540FB40A00E50A400654F034
:1054B0004409F50AB4A0004008540F4490F50A15B9
:1054C0000BE50BB40605E50AB484004006750A83B3
:1054D000750B06E50AF0A3E50BF020682474092596
:1054E00082FCE43583FDA881E625E0F5827583041E
:1054F000E0F8A3E0241CFAE438FB7E0E7F00121AC9
:105500003BE50E6003125523124C779004CBD0E09C
:10551000F01218A19004CDD0E0F0121A95122E9E30
:10552000C26922121C0DAC54AD53123104E875F05F
:1055300018A4F8AAF0E975F018A42AF9C04CC00F15
:10554000754C0012496BD00FD04C229005CAE0C0B8
:10555000E00425E0F582E0F5F0A3E0F58285F08334
:10556000E0F8A3E0F9E50F0425E0F582758305E096
:105570006023F5F0A3E0F58285F083E028F8A3E04E
:1055800039F9E8C39421E99402400AD0E0902ACB8B
:10559000C26902212B9005CBE50FF0124226A881AB
:1055A000E60425E0F582758305E07003025670FB82
:1055B000A3E0FAF5828B83E0FEA3E0FFE50F04256C
:1055C000E0F582758305E0FDA3E0FC2411F582E49B
:1055D0003DF583E00460278C828D83E02CFCA3E002
:1055E0003DFDECC39401FCED9400FDEA2411FAE4C6
:1055F0003BFBEEC39412FEEF9400FF025615EA2423
:1056000002FAE43BFBEEC39403FEEF9400FFEC24AC
:1056100002FCE43DFD9004D3C3E09EA3E0149F5040
:1056200009902D0B12212B025670121A3B74FF8C1D
:10563000828D83F0A3AC82AD839004CFE0F8ECF0D0
:10564000A3E0F9EDF0ECC398F8ED99F99004D3E0FC
:10565000C398F0A3E099F0E50F0425E0F582758387
:1056600005E0FDA3E0F5828D83E028F0A3E039F0AA
:105670009005CBD0E0F0124226C26922754C00752D
:105680004A00754900750E00750D019004CAE0F5D9
:105690000FC272C27190FF0274FFF0125710905641
:1056A000A885824E85834D222057030232BBE52117
:1056B000602520720CF50E90FF02F4F0D2720256B3
:1056C000D7B50E030256D7D271C54990FF02F5F047
:1056D000E045F0F0750D0130072830722530712259
:1056E0009025EB12212B74FF90FF02F01257171236
:1056F0002E58C272C27175490090FF0274FFF012F9
:105700005710D50D0A750D5090FF02E06549F02243
:105710009025CB12212B229004D4E0700412315B2F
:10572000229004CCE0C0E0E549754900134004052F
:105730004980F9E50E750E00134004050E80F990BE
:1057400004CDE54904F0121A959004D1E0F50AA3BE
:10575000E0F50B9004CDE5492402F0121A95E549D5
:105760009004CC04F025E0245BF8866D08866EE595
:105770000E25E0245DF88671088672E54924DBF584
:1057800082E0F50CE50E24DBF582E0F5099004CF0C
:10579000E0F56FA3E0F5707CFF7DFFEC2401FCE4F5
:1057A0003DFDC261857182857283E5837003025875
:1057B0002FE0C2E7F5F0A3E0A3B50407E0B50503C9
:1057C0000257CFA3A3E030E76675720002582FA3FB
:1057D000E0F9A3E030E70675720002582FF8E509FA
:1057E000600214F8A3E0F508A3E0F573A3858271C5
:1057F0008583721258C9856F82857083E5F02061B8
:105800000AD2E7D261F0ECA3F0EDA3F0E9A3F0E84F
:10581000A3F0E508A3F0E573A3F0A385826F858369
:1058200070857182857283E020E704F5F080A085A1
:105830006D82856E83E58370030258BBE0C2E7F595
:10584000F0A3E0A3B50407E0B5050302585AA3A3EB
:10585000E030E703756E000258BBA3E0F9A3E03027
:10586000E706756E000258BBF8E50C600214F8A359
:10587000E0F508A3E0F573A385826D85836E125869
:10588000C9856F82857083E5F020610AD2E7D26115
:10589000F0ECA3F0EDA3F0E9A3F0E8A3F0E508A392
:1058A000F0E573A3F0A385826F858370856D828593
:1058B0006E83E0F5F030E7A202579BE572600302C9
:1058C000579BE56E602402579B9004D1C3E0956F0F
:1058D000A3E01495704001221581158112315B906F
:1058E00004CCE5492402F0025990857083856F82CB
:1058F0007480F074FFA3F0A3F0E4A3F07480A3F02D
:10590000E4A3F0A3F0A385826F8583709004CAE0BE
:1059100025E0F582E0FBA3E0FA7408C3954925E091
:105920002AFCE43BFD9004CFE0C39AFEE56FF0A3B0
:10593000E09BFFE570F08C828D83EEF0A3EFF0E446
:10594000B5490E8A828B83E56FC39AF0A3E5709BFD
:10595000F09004D1E50AF02401F50AA3E50BF03438
:1059600000F50B9004D3E50AC3956FF0A3E50B9502
:1059700070F09004CAE025E0F582E0FCA3741BC33C
:105980009549F9E029F582E43CF583E4F0124C777F
:105990009004CDD0E0F0121A9522307A06122193AD
:1059A0000259A6122143307A089005CEE0B4FF01D7
:1059B00022125AE5C271C272754A5075492890592F
:1059C000C885824E85834D2230311C203003025A17
:1059D0000375492875200075210075220075230084
:1059E00075240075250022303003025A03125B0E25
:1059F000206F030232BB1232BB15811581757D0009
:105A0000020F73122DFB5003025B7E154AE54A60BC
:105A10000280C1E549146007F54AF549025A22752A
:105A20004A06203057E5522401D4F56EE43551D4AE
:105A3000F56FB5533BE56EB55436307A249005CDFD
:105A4000E004F01247A19005CEE030E7179005CDB5
:105A5000206D06E014F01247A1E4F01247A1025AAB
:105A600064306D12121C0D755201755100025A7688
:105A7000856E52856F51125AE50259D485526E8552
:105A8000516F156EE56E540FB40A00E56E40065472
:105A9000F04409F56EB4A0004008540F4490F56E30
:105AA000156FE56F30E7C9307A2D9005CDE06008BD
:105AB00014F01247A1025ADA306DBB9005CDE00414
:105AC000F01247A19005CEE030E7F09005CDE0144C
:105AD000F01247A1025ADA306D9C121C0D85545207
